{"abi":[{"type":"constructor","inputs":[{"name":"totalTickets_","type":"uint256","internalType":"uint256"},{"name":"ticketPriceEur_","type":"uint256","internalType":"uint256"},{"name":"oracle_","type":"address","internalType":"address"}],"stateMutability":"nonpayable"},{"type":"function","name":"MAX_STALENESS","inputs":[],"outputs":[{"name":"","type":"uint256","internalType":"uint256"}],"stateMutability":"view"},{"type":"function","name":"PLATFORM_FEE_PCT","inputs":[],"outputs":[{"name":"","type":"uint256","internalType":"uint256"}],"stateMutability":"view"},{"type":"function","name":"RESALE_CAP_PCT","inputs":[],"outputs":[{"name":"","type":"uint256","internalType":"uint256"}],"stateMutability":"view"},{"type":"function","name":"approve","inputs":[{"name":"to","type":"address","internalType":"address"},{"name":"tokenId","type":"uint256","internalType":"uint256"}],"outputs":[],"stateMutability":"nonpayable"},{"type":"function","name":"balanceOf","inputs":[{"name":"owner","type":"address","internalType":"address"}],"outputs":[{"name":"","type":"uint256","internalType":"uint256"}],"stateMutability":"view"},{"type":"function","name":"buyResale","inputs":[{"name":"tokenId","type":"uint256","internalType":"uint256"}],"outputs":[],"stateMutability":"payable"},{"type":"function","name":"buyTicket","inputs":[],"outputs":[],"stateMutability":"payable"},{"type":"function","name":"countForSale","inputs":[{"name":"tokenIds","type":"uint256[]","internalType":"uint256[]"}],"outputs":[{"name":"count","type":"uint256","internalType":"uint256"}],"stateMutability":"view"},{"type":"function","name":"getApproved","inputs":[{"name":"tokenId","type":"uint256","internalType":"uint256"}],"outputs":[{"name":"","type":"address","internalType":"address"}],"stateMutability":"view"},{"type":"function","name":"isApprovedForAll","inputs":[{"name":"owner","type":"address","internalType":"address"},{"name":"operator","type":"address","internalType":"address"}],"outputs":[{"name":"","type":"bool","internalType":"bool"}],"stateMutability":"view"},{"type":"function","name":"listForResale","inputs":[{"name":"tokenId","type":"uint256","internalType":"uint256"},{"name":"price","type":"uint256","internalType":"uint256"}],"outputs":[],"stateMutability":"nonpayable"},{"type":"function","name":"name","inputs":[],"outputs":[{"name":"","type":"string","internalType":"string"}],"stateMutability":"view"},{"type":"function","name":"oracle","inputs":[],"outputs":[{"name":"","type":"address","internalType":"contract IExchangeRateOracle"}],"stateMutability":"view"},{"type":"function","name":"organizer","inputs":[],"outputs":[{"name":"","type":"address","internalType":"address"}],"stateMutability":"view"},{"type":"function","name":"ownerOf","inputs":[{"name":"tokenId","type":"uint256","internalType":"uint256"}],"outputs":[{"name":"","type":"address","internalType":"address"}],"stateMutability":"view"},{"type":"function","name":"pause","inputs":[],"outputs":[],"stateMutability":"nonpayable"},{"type":"function","name":"paused","inputs":[],"outputs":[{"name":"","type":"bool","internalType":"bool"}],"stateMutability":"view"},{"type":"function","name":"pendingWithdrawals","inputs":[{"name":"","type":"address","internalType":"address"}],"outputs":[{"name":"","type":"uint256","internalType":"uint256"}],"stateMutability":"view"},{"type":"function","name":"purchasePrice","inputs":[{"name":"","type":"uint256","internalType":"uint256"}],"outputs":[{"name":"","type":"uint256","internalType":"uint256"}],"stateMutability":"view"},{"type":"function","name":"resalePrice","inputs":[{"name":"","type":"uint256","internalType":"uint256"}],"outputs":[{"name":"","type":"uint256","internalType":"uint256"}],"stateMutability":"view"},{"type":"function","name":"safeTransferFrom","inputs":[{"name":"from","type":"address","internalType":"address"},{"name":"to","type":"address","internalType":"address"},{"name":"tokenId","type":"uint256","internalType":"uint256"}],"outputs":[],"stateMutability":"nonpayable"},{"type":"function","name":"safeTransferFrom","inputs":[{"name":"from","type":"address","internalType":"address"},{"name":"to","type":"address","internalType":"address"},{"name":"tokenId","type":"uint256","internalType":"uint256"},{"name":"data","type":"bytes","internalType":"bytes"}],"outputs":[],"stateMutability":"nonpayable"},{"type":"function","name":"setApprovalForAll","inputs":[{"name":"operator","type":"address","internalType":"address"},{"name":"approved","type":"bool","internalType":"bool"}],"outputs":[],"stateMutability":"nonpayable"},{"type":"function","name":"supportsInterface","inputs":[{"name":"interfaceId","type":"bytes4","internalType":"bytes4"}],"outputs":[{"name":"","type":"bool","internalType":"bool"}],"stateMutability":"view"},{"type":"function","name":"symbol","inputs":[],"outputs":[{"name":"","type":"string","internalType":"string"}],"stateMutability":"view"},{"type":"function","name":"ticketPriceEur","inputs":[],"outputs":[{"name":"","type":"uint256","internalType":"uint256"}],"stateMutability":"view"},{"type":"function","name":"tokenURI","inputs":[{"name":"tokenId","type":"uint256","internalType":"uint256"}],"outputs":[{"name":"","type":"string","internalType":"string"}],"stateMutability":"view"},{"type":"function","name":"totalTickets","inputs":[],"outputs":[{"name":"","type":"uint256","internalType":"uint256"}],"stateMutability":"view"},{"type":"function","name":"transferFrom","inputs":[{"name":"from","type":"address","internalType":"address"},{"name":"to","type":"address","internalType":"address"},{"name":"tokenId","type":"uint256","internalType":"uint256"}],"outputs":[],"stateMutability":"nonpayable"},{"type":"function","name":"unpause","inputs":[],"outputs":[],"stateMutability":"nonpayable"},{"type":"function","name":"withdraw","inputs":[],"outputs":[],"stateMutability":"nonpayable"},{"type":"event","name":"Approval","inputs":[{"name":"owner","type":"address","indexed":true,"internalType":"address"},{"name":"approved","type":"address","indexed":true,"internalType":"address"},{"name":"tokenId","type":"uint256","indexed":true,"internalType":"uint256"}],"anonymous":false},{"type":"event","name":"ApprovalForAll","inputs":[{"name":"owner","type":"address","indexed":true,"internalType":"address"},{"name":"operator","type":"address","indexed":true,"internalType":"address"},{"name":"approved","type":"bool","indexed":false,"internalType":"bool"}],"anonymous":false},{"type":"event","name":"Paused","inputs":[{"name":"account","type":"address","indexed":false,"internalType":"address"}],"anonymous":false},{"type":"event","name":"TicketListed","inputs":[{"name":"tokenId","type":"uint256","indexed":true,"internalType":"uint256"},{"name":"seller","type":"address","indexed":true,"internalType":"address"},{"name":"priceWei","type":"uint256","indexed":false,"internalType":"uint256"}],"anonymous":false},{"type":"event","name":"TicketMinted","inputs":[{"name":"tokenId","type":"uint256","indexed":true,"internalType":"uint256"},{"name":"buyer","type":"address","indexed":true,"internalType":"address"},{"name":"priceWei","type":"uint256","indexed":false,"internalType":"uint256"}],"anonymous":false},{"type":"event","name":"TicketSold","inputs":[{"name":"tokenId","type":"uint256","indexed":true,"internalType":"uint256"},{"name":"buyer","type":"address","indexed":true,"internalType":"address"},{"name":"seller","type":"address","indexed":true,"internalType":"address"},{"name":"priceWei","type":"uint256","indexed":false,"internalType":"uint256"}],"anonymous":false},{"type":"event","name":"Transfer","inputs":[{"name":"from","type":"address","indexed":true,"internalType":"address"},{"name":"to","type":"address","indexed":true,"internalType":"address"},{"name":"tokenId","type":"uint256","indexed":true,"internalType":"uint256"}],"anonymous":false},{"type":"event","name":"Unpaused","inputs":[{"name":"account","type":"address","indexed":false,"internalType":"address"}],"anonymous":false},{"type":"event","name":"Withdrawn","inputs":[{"name":"account","type":"address","indexed":true,"internalType":"address"},{"name":"amount","type":"uint256","indexed":false,"internalType":"uint256"}],"anonymous":false},{"type":"error","name":"ERC721IncorrectOwner","inputs":[{"name":"sender","type":"address","internalType":"address"},{"name":"tokenId","type":"uint256","internalType":"uint256"},{"name":"owner","type":"address","internalType":"address"}]},{"type":"error","name":"ERC721InsufficientApproval","inputs":[{"name":"operator","type":"address","internalType":"address"},{"name":"tokenId","type":"uint256","internalType":"uint256"}]},{"type":"error","name":"ERC721InvalidApprover","inputs":[{"name":"approver","type":"address","internalType":"address"}]},{"type":"error","name":"ERC721InvalidOperator","inputs":[{"name":"operator","type":"address","internalType":"address"}]},{"type":"error","name":"ERC721InvalidOwner","inputs":[{"name":"owner","type":"address","internalType":"address"}]},{"type":"error","name":"ERC721InvalidReceiver","inputs":[{"name":"receiver","type":"address","internalType":"address"}]},{"type":"error","name":"ERC721InvalidSender","inputs":[{"name":"sender","type":"address","internalType":"address"}]},{"type":"error","name":"ERC721NonexistentToken","inputs":[{"name":"tokenId","type":"uint256","internalType":"uint256"}]},{"type":"error","name":"EnforcedPause","inputs":[]},{"type":"error","name":"ExpectedPause","inputs":[]},{"type":"error","name":"InvalidOracleAnswer","inputs":[]},{"type":"error","name":"NotApproved","inputs":[]},{"type":"error","name":"NotForSale","inputs":[]},{"type":"error","name":"NotTicketOwner","inputs":[]},{"type":"error","name":"NothingToWithdraw","inputs":[]},{"type":"error","name":"PriceTooHigh","inputs":[{"name":"maxAllowed","type":"uint256","internalType":"uint256"},{"name":"requested","type":"uint256","internalType":"uint256"}]},{"type":"error","name":"ReentrancyGuardReentrantCall","inputs":[]},{"type":"error","name":"SoldOut","inputs":[]},{"type":"error","name":"StaleOracle","inputs":[]},{"type":"error","name":"WrongPayment","inputs":[{"name":"expected","type":"uint256","internalType":"uint256"},{"name":"sent","type":"uint256","internalType":"uint256"}]}],"bytecode":{"object":"0x610100604052348015610010575f5ffd5b50604051613e32380380613e3283398181016040528101906100329190610226565b6040518060400160405280600b81526020017f42696c6c6574436861696e0000000000000000000000000000000000000000008152506040518060400160405280600681526020017f42494c4c45540000000000000000000000000000000000000000000000000000815250815f90816100ac91906104bb565b5080600190816100bc91906104bb565b50505060016100dd6100d261016360201b60201c565b61018c60201b60201c565b5f018190555082608081815250508160a081815250508073ffffffffffffffffffffffffffffffffffffffff1660e08173ffffffffffffffffffffffffffffffffffffffff16815250503373ffffffffffffffffffffffffffffffffffffffff1660c08173ffffffffffffffffffffffffffffffffffffffff168152505050505061058a565b5f7f9b779b17422d0df92223018b32b4d1fa46e071723d6817e2486d003becc55f005f1b905090565b5f819050919050565b5f5ffd5b5f819050919050565b6101ab81610199565b81146101b5575f5ffd5b50565b5f815190506101c6816101a2565b92915050565b5f73ffffffffffffffffffffffffffffffffffffffff82169050919050565b5f6101f5826101cc565b9050919050565b610205816101eb565b811461020f575f5ffd5b50565b5f81519050610220816101fc565b92915050565b5f5f5f6060848603121561023d5761023c610195565b5b5f61024a868287016101b8565b935050602061025b868287016101b8565b925050604061026c86828701610212565b9150509250925092565b5f81519050919050565b7f4e487b71000000000000000000000000000000000000000000000000000000005f52604160045260245ffd5b7f4e487b71000000000000000000000000000000000000000000000000000000005f52602260045260245ffd5b5f60028204905060018216806102f157607f821691505b602082108103610304576103036102ad565b5b50919050565b5f819050815f5260205f209050919050565b5f6020601f8301049050919050565b5f82821b905092915050565b5f600883026103667fffffffffffffffffffffffffffffffffffffffffffffffffffffffffffffffff8261032b565b610370868361032b565b95508019841693508086168417925050509392505050565b5f819050919050565b5f6103ab6103a66103a184610199565b610388565b610199565b9050919050565b5f819050919050565b6103c483610391565b6103d86103d0826103b2565b848454610337565b825550505050565b5f5f905090565b6103ef6103e0565b6103fa8184846103bb565b505050565b5f5b82811015610420576104155f8284016103e7565b600181019050610401565b505050565b601f82111561047357828211156104725761043f8161030a565b6104488361031c565b6104518561031c565b602086101561045e575f90505b80830161046d828403826103ff565b505050505b5b505050565b5f82821c905092915050565b5f6104935f1984600802610478565b1980831691505092915050565b5f6104ab8383610484565b9150826002028217905092915050565b6104c482610276565b67ffffffffffffffff8111156104dd576104dc610280565b5b6104e782546102da565b6104f2828285610425565b5f60209050601f831160018114610523575f8415610511578287015190505b61051b85826104a0565b865550610582565b601f1984166105318661030a565b5f5b8281101561055857848901518255600182019150602085019450602081019050610533565b868310156105755784890151610571601f891682610484565b8355505b6001600288020188555050505b505050505050565b60805160a05160c05160e0516138446105ee5f395f8181610f4d01526122f101525f8181610d8101528181610e4d01528181610f760152818161131901526116f901525f818161111b015261241201525f818161154c015261160e01526138445ff3fe6080604052600436106101d7575f3560e01c80637dc0d1d011610101578063b54baacf11610094578063dd11247e11610063578063dd11247e14610683578063e985e9c5146106ad578063edca914c146106e9578063f3f43703146106f3576101d7565b8063b54baacf146105d9578063b88d4fde146105f5578063c87b56dd1461061d578063caca95a414610659576101d7565b806398107b48116100d057806398107b48146105215780639c0f2d3b1461054b578063a22cb46514610587578063a5c2487a146105af576101d7565b80637dc0d1d01461048d578063804148a3146104b75780638456cb59146104e157806395d89b41146104f7576101d7565b80633ccfd60b11610179578063612032651161014857806361203265146103af5780636352211e146103d957806370a082311461041557806377fbc4ae14610451576101d7565b80633ccfd60b146103315780633f4ba83a1461034757806342842e0e1461035d5780635c975abb14610385576101d7565b8063081812fc116101b5578063081812fc1461027d578063095ea7b3146102b95780631f7d863c146102e157806323b872dd14610309576101d7565b806301ffc9a7146101db5780630384ca491461021757806306fdde0314610253575b5f5ffd5b3480156101e6575f5ffd5b5061020160048036038101906101fc9190612b80565b61072f565b60405161020e9190612bc5565b60405180910390f35b348015610222575f5ffd5b5061023d60048036038101906102389190612c11565b610810565b60405161024a9190612c4b565b60405180910390f35b34801561025e575f5ffd5b50610267610825565b6040516102749190612cd4565b60405180910390f35b348015610288575f5ffd5b506102a3600480360381019061029e9190612c11565b6108b4565b6040516102b09190612d33565b60405180910390f35b3480156102c4575f5ffd5b506102df60048036038101906102da9190612d76565b6108cf565b005b3480156102ec575f5ffd5b5061030760048036038101906103029190612db4565b6108e5565b005b348015610314575f5ffd5b5061032f600480360381019061032a9190612df2565b610aba565b005b34801561033c575f5ffd5b50610345610bb9565b005b348015610352575f5ffd5b5061035b610d7f565b005b348015610368575f5ffd5b50610383600480360381019061037e9190612df2565b610e17565b005b348015610390575f5ffd5b50610399610e36565b6040516103a69190612bc5565b60405180910390f35b3480156103ba575f5ffd5b506103c3610e4b565b6040516103d09190612d33565b60405180910390f35b3480156103e4575f5ffd5b506103ff60048036038101906103fa9190612c11565b610e6f565b60405161040c9190612d33565b60405180910390f35b348015610420575f5ffd5b5061043b60048036038101906104369190612e42565b610e80565b6040516104489190612c4b565b60405180910390f35b34801561045c575f5ffd5b5061047760048036038101906104729190612c11565b610f36565b6040516104849190612c4b565b60405180910390f35b348015610498575f5ffd5b506104a1610f4b565b6040516104ae9190612ec8565b60405180910390f35b3480156104c2575f5ffd5b506104cb610f6f565b6040516104d89190612c4b565b60405180910390f35b3480156104ec575f5ffd5b506104f5610f74565b005b348015610502575f5ffd5b5061050b61100c565b6040516105189190612cd4565b60405180910390f35b34801561052c575f5ffd5b5061053561109c565b6040516105429190612c4b565b60405180910390f35b348015610556575f5ffd5b50610571600480360381019061056c9190612f42565b6110a1565b60405161057e9190612c4b565b60405180910390f35b348015610592575f5ffd5b506105ad60048036038101906105a89190612fb7565b611103565b005b3480156105ba575f5ffd5b506105c3611119565b6040516105d09190612c4b565b60405180910390f35b6105f360048036038101906105ee9190612c11565b61113d565b005b348015610600575f5ffd5b5061061b6004803603810190610616919061311d565b6114b9565b005b348015610628575f5ffd5b50610643600480360381019061063e9190612c11565b6114de565b6040516106509190612cd4565b60405180910390f35b348015610664575f5ffd5b5061066d611544565b60405161067a9190612c4b565b60405180910390f35b34801561068e575f5ffd5b5061069761154a565b6040516106a49190612c4b565b60405180910390f35b3480156106b8575f5ffd5b506106d360048036038101906106ce919061319d565b61156e565b6040516106e09190612bc5565b60405180910390f35b6106f16115fc565b005b3480156106fe575f5ffd5b5061071960048036038101906107149190612e42565b61187e565b6040516107269190612c4b565b60405180910390f35b5f7f80ac58cd000000000000000000000000000000000000000000000000000000007bffffffffffffffffffffffffffffffffffffffffffffffffffffffff1916827bffffffffffffffffffffffffffffffffffffffffffffffffffffffff191614806107f957507f5b5e139f000000000000000000000000000000000000000000000000000000007bffffffffffffffffffffffffffffffffffffffffffffffffffffffff1916827bffffffffffffffffffffffffffffffffffffffffffffffffffffffff1916145b80610809575061080882611893565b5b9050919050565b6009602052805f5260405f205f915090505481565b60605f805461083390613208565b80601f016020809104026020016040519081016040528092919081815260200182805461085f90613208565b80156108aa5780601f10610881576101008083540402835291602001916108aa565b820191905f5260205f20905b81548152906001019060200180831161088d57829003601f168201915b5050505050905090565b5f6108be826118fc565b506108c882611982565b9050919050565b6108e182826108dc6119bb565b6119c2565b5050565b6108ed6119d4565b3373ffffffffffffffffffffffffffffffffffffffff1661090d83610e6f565b73ffffffffffffffffffffffffffffffffffffffff161461095a576040517fe18d39ad00000000000000000000000000000000000000000000000000000000815260040160405180910390fd5b5f6064606e60085f8681526020019081526020015f205461097b9190613265565b61098591906132d3565b9050808211156109ce5780826040517f87ebe85d0000000000000000000000000000000000000000000000000000000081526004016109c5929190613303565b60405180910390fd5b3073ffffffffffffffffffffffffffffffffffffffff166109ee846108b4565b73ffffffffffffffffffffffffffffffffffffffff1614158015610a195750610a17333061156e565b155b15610a50576040517fc19f17a900000000000000000000000000000000000000000000000000000000815260040160405180910390fd5b8160095f8581526020019081526020015f20819055503373ffffffffffffffffffffffffffffffffffffffff16837f22968ec3be3687b180f3544163a034b88d57b48159d9a7e9a1b610fdb2d05f8084604051610aad9190612c4b565b60405180910390a3505050565b5f73ffffffffffffffffffffffffffffffffffffffff168273ffffffffffffffffffffffffffffffffffffffff1603610b2a575f6040517f64a0ae92000000000000000000000000000000000000000000000000000000008152600401610b219190612d33565b60405180910390fd5b5f610b3d8383610b386119bb565b611a15565b90508373ffffffffffffffffffffffffffffffffffffffff168173ffffffffffffffffffffffffffffffffffffffff1614610bb3578382826040517f64283d7b000000000000000000000000000000000000000000000000000000008152600401610baa9392919061332a565b60405180910390fd5b50505050565b610bc1611c20565b5f600a5f3373ffffffffffffffffffffffffffffffffffffffff1673ffffffffffffffffffffffffffffffffffffffff1681526020019081526020015f205490505f8103610c3b576040517fd0d04f6000000000000000000000000000000000000000000000000000000000815260040160405180910390fd5b5f600a5f3373ffffffffffffffffffffffffffffffffffffffff1673ffffffffffffffffffffffffffffffffffffffff1681526020019081526020015f20819055505f3373ffffffffffffffffffffffffffffffffffffffff1682604051610ca29061338c565b5f6040518083038185875af1925050503d805f8114610cdc576040519150601f19603f3d011682016040523d82523d5f602084013e610ce1565b606091505b5050905080610d25576040517f08c379a0000000000000000000000000000000000000000000000000000000008152600401610d1c906133ea565b60405180910390fd5b3373ffffffffffffffffffffffffffffffffffffffff167f7084f5476618d8e60b11ef0d7d3f06914655adb8793e28ff7f018d4c76d505d583604051610d6b9190612c4b565b60405180910390a25050610d7d611c42565b565b7f000000000000000000000000000000000000000000000000000000000000000073ffffffffffffffffffffffffffffffffffffffff163373ffffffffffffffffffffffffffffffffffffffff1614610e0d576040517f08c379a0000000000000000000000000000000000000000000000000000000008152600401610e0490613452565b60405180910390fd5b610e15611c5c565b565b610e3183838360405180602001604052805f8152506114b9565b505050565b5f60065f9054906101000a900460ff16905090565b7f000000000000000000000000000000000000000000000000000000000000000081565b5f610e79826118fc565b9050919050565b5f5f73ffffffffffffffffffffffffffffffffffffffff168273ffffffffffffffffffffffffffffffffffffffff1603610ef1575f6040517f89c62b64000000000000000000000000000000000000000000000000000000008152600401610ee89190612d33565b60405180910390fd5b60035f8373ffffffffffffffffffffffffffffffffffffffff1673ffffffffffffffffffffffffffffffffffffffff1681526020019081526020015f20549050919050565b6008602052805f5260405f205f915090505481565b7f000000000000000000000000000000000000000000000000000000000000000081565b600581565b7f000000000000000000000000000000000000000000000000000000000000000073ffffffffffffffffffffffffffffffffffffffff163373ffffffffffffffffffffffffffffffffffffffff1614611002576040517f08c379a0000000000000000000000000000000000000000000000000000000008152600401610ff990613452565b60405180910390fd5b61100a611cbd565b565b60606001805461101b90613208565b80601f016020809104026020016040519081016040528092919081815260200182805461104790613208565b80156110925780601f1061106957610100808354040283529160200191611092565b820191905f5260205f20905b81548152906001019060200180831161107557829003601f168201915b5050505050905090565b606e81565b5f5f5f90505b838390508110156110fc575f60095f8686858181106110c9576110c8613470565b5b9050602002013581526020019081526020015f205411156110f157816110ee9061349d565b91505b8060010190506110a7565b5092915050565b61111561110e6119bb565b8383611d1f565b5050565b7f000000000000000000000000000000000000000000000000000000000000000081565b611145611c20565b61114d6119d4565b5f60095f8381526020019081526020015f205490505f810361119b576040517f1d99ddbf00000000000000000000000000000000000000000000000000000000815260040160405180910390fd5b803410156111e25780346040517f0dd32d1c0000000000000000000000000000000000000000000000000000000081526004016111d9929190613303565b60405180910390fd5b5f6111ec83610e6f565b90503073ffffffffffffffffffffffffffffffffffffffff1661120e846108b4565b73ffffffffffffffffffffffffffffffffffffffff16141580156112395750611237813061156e565b155b15611270576040517fc19f17a900000000000000000000000000000000000000000000000000000000815260040160405180910390fd5b5f60646005846112809190613265565b61128a91906132d3565b90505f818461129991906134e4565b90505f84346112a891906134e4565b90505f60095f8881526020019081526020015f208190555081600a5f8673ffffffffffffffffffffffffffffffffffffffff1673ffffffffffffffffffffffffffffffffffffffff1681526020019081526020015f205f82825461130c9190613517565b9250508190555082600a5f7f000000000000000000000000000000000000000000000000000000000000000073ffffffffffffffffffffffffffffffffffffffff1673ffffffffffffffffffffffffffffffffffffffff1681526020019081526020015f205f82825461137f9190613517565b92505081905550611391843388611ef8565b8373ffffffffffffffffffffffffffffffffffffffff163373ffffffffffffffffffffffffffffffffffffffff16877f2bbc64d6afd28a753f6c5e4aaa894f1d684c44a0e080167eae104ac8505cfebd886040516113ef9190612c4b565b60405180910390a45f8111156114a9575f3373ffffffffffffffffffffffffffffffffffffffff16826040516114249061338c565b5f6040518083038185875af1925050503d805f811461145e576040519150601f19603f3d011682016040523d82523d5f602084013e611463565b606091505b50509050806114a7576040517f08c379a000000000000000000000000000000000000000000000000000000000815260040161149e90613594565b60405180910390fd5b505b50505050506114b6611c42565b50565b6114c4848484610aba565b6114d86114cf6119bb565b85858585612060565b50505050565b60606114e9826118fc565b505f6114f361220c565b90505f8151116115115760405180602001604052805f81525061153c565b8061151b84612222565b60405160200161152c9291906135ec565b6040516020818303038152906040525b915050919050565b610e1081565b7f000000000000000000000000000000000000000000000000000000000000000081565b5f60055f8473ffffffffffffffffffffffffffffffffffffffff1673ffffffffffffffffffffffffffffffffffffffff1681526020019081526020015f205f8373ffffffffffffffffffffffffffffffffffffffff1673ffffffffffffffffffffffffffffffffffffffff1681526020019081526020015f205f9054906101000a900460ff16905092915050565b611604611c20565b61160c6119d4565b7f000000000000000000000000000000000000000000000000000000000000000060075410611667576040517f52df9fe500000000000000000000000000000000000000000000000000000000815260040160405180910390fd5b5f6116706122ec565b9050803410156116b95780346040517f0dd32d1c0000000000000000000000000000000000000000000000000000000081526004016116b0929190613303565b60405180910390fd5b5f600754905060075f8154600101919050819055505f82346116db91906134e4565b90508260085f8481526020019081526020015f208190555082600a5f7f000000000000000000000000000000000000000000000000000000000000000073ffffffffffffffffffffffffffffffffffffffff1673ffffffffffffffffffffffffffffffffffffffff1681526020019081526020015f205f82825461175f9190613517565b92505081905550611770338361244c565b3373ffffffffffffffffffffffffffffffffffffffff16827f5c1c9352d51031acc9a558d7cdcca15b0ce5fe4f46d7315cca355248175b0a37856040516117b79190612c4b565b60405180910390a35f811115611871575f3373ffffffffffffffffffffffffffffffffffffffff16826040516117ec9061338c565b5f6040518083038185875af1925050503d805f8114611826576040519150601f19603f3d011682016040523d82523d5f602084013e61182b565b606091505b505090508061186f576040517f08c379a000000000000000000000000000000000000000000000000000000000815260040161186690613594565b60405180910390fd5b505b50505061187c611c42565b565b600a602052805f5260405f205f915090505481565b5f7f01ffc9a7000000000000000000000000000000000000000000000000000000007bffffffffffffffffffffffffffffffffffffffffffffffffffffffff1916827bffffffffffffffffffffffffffffffffffffffffffffffffffffffff1916149050919050565b5f5f61190783612469565b90505f73ffffffffffffffffffffffffffffffffffffffff168173ffffffffffffffffffffffffffffffffffffffff160361197957826040517f7e2732890000000000000000000000000000000000000000000000000000000081526004016119709190612c4b565b60405180910390fd5b80915050919050565b5f60045f8381526020019081526020015f205f9054906101000a900473ffffffffffffffffffffffffffffffffffffffff169050919050565b5f33905090565b6119cf83838360016124a2565b505050565b6119dc610e36565b15611a13576040517fd93c066500000000000000000000000000000000000000000000000000000000815260040160405180910390fd5b565b5f5f611a2084612469565b90505f73ffffffffffffffffffffffffffffffffffffffff168373ffffffffffffffffffffffffffffffffffffffff1614611a6157611a60818486612661565b5b5f73ffffffffffffffffffffffffffffffffffffffff168173ffffffffffffffffffffffffffffffffffffffff1614611aec57611aa05f855f5f6124a2565b600160035f8373ffffffffffffffffffffffffffffffffffffffff1673ffffffffffffffffffffffffffffffffffffffff1681526020019081526020015f205f82825403925050819055505b5f73ffffffffffffffffffffffffffffffffffffffff168573ffffffffffffffffffffffffffffffffffffffff1614611b6b57600160035f8773ffffffffffffffffffffffffffffffffffffffff1673ffffffffffffffffffffffffffffffffffffffff1681526020019081526020015f205f82825401925050819055505b8460025f8681526020019081526020015f205f6101000a81548173ffffffffffffffffffffffffffffffffffffffff021916908373ffffffffffffffffffffffffffffffffffffffff160217905550838573ffffffffffffffffffffffffffffffffffffffff168273ffffffffffffffffffffffffffffffffffffffff167fddf252ad1be2c89b69c2b068fc378daa952ba7f163c4a11628f55a4df523b3ef60405160405180910390a4809150509392505050565b611c28612724565b6002611c3a611c35612765565b61278e565b5f0181905550565b6001611c54611c4f612765565b61278e565b5f0181905550565b611c64612797565b5f60065f6101000a81548160ff0219169083151502179055507f5db9ee0a495bf2e6ff9c91a7834c1ba4fdd244a5e8aa4e537bd38aeae4b073aa611ca66119bb565b604051611cb39190612d33565b60405180910390a1565b611cc56119d4565b600160065f6101000a81548160ff0219169083151502179055507f62e78cea01bee320cd4e420270b5ea74000d11b0c9f74754ebdbfc544b05a258611d086119bb565b604051611d159190612d33565b60405180910390a1565b5f73ffffffffffffffffffffffffffffffffffffffff168373ffffffffffffffffffffffffffffffffffffffff1603611d8f575f6040517fa9fbf51f000000000000000000000000000000000000000000000000000000008152600401611d869190612d33565b60405180910390fd5b5f73ffffffffffffffffffffffffffffffffffffffff168273ffffffffffffffffffffffffffffffffffffffff1603611dff57816040517f5b08ba18000000000000000000000000000000000000000000000000000000008152600401611df69190612d33565b60405180910390fd5b8060055f8573ffffffffffffffffffffffffffffffffffffffff1673ffffffffffffffffffffffffffffffffffffffff1681526020019081526020015f205f8473ffffffffffffffffffffffffffffffffffffffff1673ffffffffffffffffffffffffffffffffffffffff1681526020019081526020015f205f6101000a81548160ff0219169083151502179055508173ffffffffffffffffffffffffffffffffffffffff168373ffffffffffffffffffffffffffffffffffffffff167f17307eab39ab6107e8899845ad3d59bd9653f200f220920489ca2b5937696c3183604051611eeb9190612bc5565b60405180910390a3505050565b5f73ffffffffffffffffffffffffffffffffffffffff168273ffffffffffffffffffffffffffffffffffffffff1603611f68575f6040517f64a0ae92000000000000000000000000000000000000000000000000000000008152600401611f5f9190612d33565b60405180910390fd5b5f611f7483835f611a15565b90505f73ffffffffffffffffffffffffffffffffffffffff168173ffffffffffffffffffffffffffffffffffffffff1603611fe657816040517f7e273289000000000000000000000000000000000000000000000000000000008152600401611fdd9190612c4b565b60405180910390fd5b8373ffffffffffffffffffffffffffffffffffffffff168173ffffffffffffffffffffffffffffffffffffffff161461205a578382826040517f64283d7b0000000000000000000000000000000000000000000000000000000081526004016120519392919061332a565b60405180910390fd5b50505050565b5f8373ffffffffffffffffffffffffffffffffffffffff163b1115612205578273ffffffffffffffffffffffffffffffffffffffff1663150b7a02868685856040518563ffffffff1660e01b81526004016120be9493929190613661565b6020604051808303815f875af19250505080156120f957506040513d601f19601f820116820180604052508101906120f691906136bf565b60015b61217a573d805f8114612127576040519150601f19603f3d011682016040523d82523d5f602084013e61212c565b606091505b505f81510361217257836040517f64a0ae920000000000000000000000000000000000000000000000000000000081526004016121699190612d33565b60405180910390fd5b805160208201fd5b63150b7a0260e01b7bffffffffffffffffffffffffffffffffffffffffffffffffffffffff1916817bffffffffffffffffffffffffffffffffffffffffffffffffffffffff19161461220357836040517f64a0ae920000000000000000000000000000000000000000000000000000000081526004016121fa9190612d33565b60405180910390fd5b505b5050505050565b606060405180602001604052805f815250905090565b60605f6001612230846127d7565b0190505f8167ffffffffffffffff81111561224e5761224d612ff9565b5b6040519080825280601f01601f1916602001820160405280156122805781602001600182028036833780820191505090505b5090505f82602083010190505b6001156122e1578080600190039150507f3031323334353637383961626364656600000000000000000000000000000000600a86061a8153600a85816122d6576122d56132a6565b5b0494505f850361228d575b819350505050919050565b5f5f5f7f000000000000000000000000000000000000000000000000000000000000000073ffffffffffffffffffffffffffffffffffffffff1663feaf968c6040518163ffffffff1660e01b815260040160a060405180830381865afa158015612358573d5f5f3e3d5ffd5b505050506040513d601f19601f8201168201806040525081019061237c9190613770565b509350509250505f82136123bc576040517fa43e854600000000000000000000000000000000000000000000000000000000815260040160405180910390fd5b610e1081426123cb91906134e4565b1115612403576040517f88cce42900000000000000000000000000000000000000000000000000000000815260040160405180910390fd5b816a52b7d2dcc80cd2e40000007f000000000000000000000000000000000000000000000000000000000000000061243b9190613265565b61244591906132d3565b9250505090565b612465828260405180602001604052805f815250612928565b5050565b5f60025f8381526020019081526020015f205f9054906101000a900473ffffffffffffffffffffffffffffffffffffffff169050919050565b80806124da57505f73ffffffffffffffffffffffffffffffffffffffff168273ffffffffffffffffffffffffffffffffffffffff1614155b1561260c575f6124e9846118fc565b90505f73ffffffffffffffffffffffffffffffffffffffff168373ffffffffffffffffffffffffffffffffffffffff161415801561255357508273ffffffffffffffffffffffffffffffffffffffff168173ffffffffffffffffffffffffffffffffffffffff1614155b80156125665750612564818461156e565b155b156125a857826040517fa9fbf51f00000000000000000000000000000000000000000000000000000000815260040161259f9190612d33565b60405180910390fd5b811561260a57838573ffffffffffffffffffffffffffffffffffffffff168273ffffffffffffffffffffffffffffffffffffffff167f8c5be1e5ebec7d5bd14f71427d1e84f3dd0314c0f7b2291e5b200ac8c7c3b92560405160405180910390a45b505b8360045f8581526020019081526020015f205f6101000a81548173ffffffffffffffffffffffffffffffffffffffff021916908373ffffffffffffffffffffffffffffffffffffffff16021790555050505050565b61266c83838361294b565b61271f575f73ffffffffffffffffffffffffffffffffffffffff168373ffffffffffffffffffffffffffffffffffffffff16036126e057806040517f7e2732890000000000000000000000000000000000000000000000000000000081526004016126d79190612c4b565b60405180910390fd5b81816040517f177e802f0000000000000000000000000000000000000000000000000000000081526004016127169291906137e7565b60405180910390fd5b505050565b61272c612a0b565b15612763576040517f3ee5aeb500000000000000000000000000000000000000000000000000000000815260040160405180910390fd5b565b5f7f9b779b17422d0df92223018b32b4d1fa46e071723d6817e2486d003becc55f005f1b905090565b5f819050919050565b61279f610e36565b6127d5576040517f8dfc202b00000000000000000000000000000000000000000000000000000000815260040160405180910390fd5b565b5f5f5f90507a184f03e93ff9f4daa797ed6e38ed64bf6a1f0100000000000000008310612833577a184f03e93ff9f4daa797ed6e38ed64bf6a1f0100000000000000008381612829576128286132a6565b5b0492506040810190505b6d04ee2d6d415b85acef81000000008310612870576d04ee2d6d415b85acef81000000008381612866576128656132a6565b5b0492506020810190505b662386f26fc10000831061289f57662386f26fc100008381612895576128946132a6565b5b0492506010810190505b6305f5e10083106128c8576305f5e10083816128be576128bd6132a6565b5b0492506008810190505b61271083106128ed5761271083816128e3576128e26132a6565b5b0492506004810190505b606483106129105760648381612906576129056132a6565b5b0492506002810190505b600a831061291f576001810190505b80915050919050565b6129328383612a27565b61294661293d6119bb565b5f858585612060565b505050565b5f5f73ffffffffffffffffffffffffffffffffffffffff168373ffffffffffffffffffffffffffffffffffffffff1614158015612a0257508273ffffffffffffffffffffffffffffffffffffffff168473ffffffffffffffffffffffffffffffffffffffff1614806129c357506129c2848461156e565b5b80612a0157508273ffffffffffffffffffffffffffffffffffffffff166129e983611982565b73ffffffffffffffffffffffffffffffffffffffff16145b5b90509392505050565b5f6002612a1e612a19612765565b61278e565b5f015414905090565b5f73ffffffffffffffffffffffffffffffffffffffff168273ffffffffffffffffffffffffffffffffffffffff1603612a97575f6040517f64a0ae92000000000000000000000000000000000000000000000000000000008152600401612a8e9190612d33565b60405180910390fd5b5f612aa383835f611a15565b90505f73ffffffffffffffffffffffffffffffffffffffff168173ffffffffffffffffffffffffffffffffffffffff1614612b15575f6040517f73c6ac6e000000000000000000000000000000000000000000000000000000008152600401612b0c9190612d33565b60405180910390fd5b505050565b5f604051905090565b5f5ffd5b5f5ffd5b5f7fffffffff0000000000000000000000000000000000000000000000000000000082169050919050565b612b5f81612b2b565b8114612b69575f5ffd5b50565b5f81359050612b7a81612b56565b92915050565b5f60208284031215612b9557612b94612b23565b5b5f612ba284828501612b6c565b91505092915050565b5f8115159050919050565b612bbf81612bab565b82525050565b5f602082019050612bd85f830184612bb6565b92915050565b5f819050919050565b612bf081612bde565b8114612bfa575f5ffd5b50565b5f81359050612c0b81612be7565b92915050565b5f60208284031215612c2657612c25612b23565b5b5f612c3384828501612bfd565b91505092915050565b612c4581612bde565b82525050565b5f602082019050612c5e5f830184612c3c565b92915050565b5f81519050919050565b5f82825260208201905092915050565b8281835e5f83830152505050565b5f601f19601f8301169050919050565b5f612ca682612c64565b612cb08185612c6e565b9350612cc0818560208601612c7e565b612cc981612c8c565b840191505092915050565b5f6020820190508181035f830152612cec8184612c9c565b905092915050565b5f73ffffffffffffffffffffffffffffffffffffffff82169050919050565b5f612d1d82612cf4565b9050919050565b612d2d81612d13565b82525050565b5f602082019050612d465f830184612d24565b92915050565b612d5581612d13565b8114612d5f575f5ffd5b50565b5f81359050612d7081612d4c565b92915050565b5f5f60408385031215612d8c57612d8b612b23565b5b5f612d9985828601612d62565b9250506020612daa85828601612bfd565b9150509250929050565b5f5f60408385031215612dca57612dc9612b23565b5b5f612dd785828601612bfd565b9250506020612de885828601612bfd565b9150509250929050565b5f5f5f60608486031215612e0957612e08612b23565b5b5f612e1686828701612d62565b9350506020612e2786828701612d62565b9250506040612e3886828701612bfd565b9150509250925092565b5f60208284031215612e5757612e56612b23565b5b5f612e6484828501612d62565b91505092915050565b5f819050919050565b5f612e90612e8b612e8684612cf4565b612e6d565b612cf4565b9050919050565b5f612ea182612e76565b9050919050565b5f612eb282612e97565b9050919050565b612ec281612ea8565b82525050565b5f602082019050612edb5f830184612eb9565b92915050565b5f5ffd5b5f5ffd5b5f5ffd5b5f5f83601f840112612f0257612f01612ee1565b5b8235905067ffffffffffffffff811115612f1f57612f1e612ee5565b5b602083019150836020820283011115612f3b57612f3a612ee9565b5b9250929050565b5f5f60208385031215612f5857612f57612b23565b5b5f83013567ffffffffffffffff811115612f7557612f74612b27565b5b612f8185828601612eed565b92509250509250929050565b612f9681612bab565b8114612fa0575f5ffd5b50565b5f81359050612fb181612f8d565b92915050565b5f5f60408385031215612fcd57612fcc612b23565b5b5f612fda85828601612d62565b9250506020612feb85828601612fa3565b9150509250929050565b5f5ffd5b7f4e487b71000000000000000000000000000000000000000000000000000000005f52604160045260245ffd5b61302f82612c8c565b810181811067ffffffffffffffff8211171561304e5761304d612ff9565b5b80604052505050565b5f613060612b1a565b905061306c8282613026565b919050565b5f67ffffffffffffffff82111561308b5761308a612ff9565b5b61309482612c8c565b9050602081019050919050565b828183375f83830152505050565b5f6130c16130bc84613071565b613057565b9050828152602081018484840111156130dd576130dc612ff5565b5b6130e88482856130a1565b509392505050565b5f82601f83011261310457613103612ee1565b5b81356131148482602086016130af565b91505092915050565b5f5f5f5f6080858703121561313557613134612b23565b5b5f61314287828801612d62565b945050602061315387828801612d62565b935050604061316487828801612bfd565b925050606085013567ffffffffffffffff81111561318557613184612b27565b5b613191878288016130f0565b91505092959194509250565b5f5f604083850312156131b3576131b2612b23565b5b5f6131c085828601612d62565b92505060206131d185828601612d62565b9150509250929050565b7f4e487b71000000000000000000000000000000000000000000000000000000005f52602260045260245ffd5b5f600282049050600182168061321f57607f821691505b602082108103613232576132316131db565b5b50919050565b7f4e487b71000000000000000000000000000000000000000000000000000000005f52601160045260245ffd5b5f61326f82612bde565b915061327a83612bde565b925082820261328881612bde565b9150828204841483151761329f5761329e613238565b5b5092915050565b7f4e487b71000000000000000000000000000000000000000000000000000000005f52601260045260245ffd5b5f6132dd82612bde565b91506132e883612bde565b9250826132f8576132f76132a6565b5b828204905092915050565b5f6040820190506133165f830185612c3c565b6133236020830184612c3c565b9392505050565b5f60608201905061333d5f830186612d24565b61334a6020830185612c3c565b6133576040830184612d24565b949350505050565b5f81905092915050565b50565b5f6133775f8361335f565b915061338282613369565b5f82019050919050565b5f6133968261336c565b9150819050919050565b7f5472616e73666572206661696c656400000000000000000000000000000000005f82015250565b5f6133d4600f83612c6e565b91506133df826133a0565b602082019050919050565b5f6020820190508181035f830152613401816133c8565b9050919050565b7f6e6f74206f7267616e697a6572000000000000000000000000000000000000005f82015250565b5f61343c600d83612c6e565b915061344782613408565b602082019050919050565b5f6020820190508181035f83015261346981613430565b9050919050565b7f4e487b71000000000000000000000000000000000000000000000000000000005f52603260045260245ffd5b5f6134a782612bde565b91507fffffffffffffffffffffffffffffffffffffffffffffffffffffffffffffffff82036134d9576134d8613238565b5b600182019050919050565b5f6134ee82612bde565b91506134f983612bde565b925082820390508181111561351157613510613238565b5b92915050565b5f61352182612bde565b915061352c83612bde565b925082820190508082111561354457613543613238565b5b92915050565b7f526566756e64206661696c6564000000000000000000000000000000000000005f82015250565b5f61357e600d83612c6e565b91506135898261354a565b602082019050919050565b5f6020820190508181035f8301526135ab81613572565b9050919050565b5f81905092915050565b5f6135c682612c64565b6135d081856135b2565b93506135e0818560208601612c7e565b80840191505092915050565b5f6135f782856135bc565b915061360382846135bc565b91508190509392505050565b5f81519050919050565b5f82825260208201905092915050565b5f6136338261360f565b61363d8185613619565b935061364d818560208601612c7e565b61365681612c8c565b840191505092915050565b5f6080820190506136745f830187612d24565b6136816020830186612d24565b61368e6040830185612c3c565b81810360608301526136a08184613629565b905095945050505050565b5f815190506136b981612b56565b92915050565b5f602082840312156136d4576136d3612b23565b5b5f6136e1848285016136ab565b91505092915050565b5f69ffffffffffffffffffff82169050919050565b613708816136ea565b8114613712575f5ffd5b50565b5f81519050613723816136ff565b92915050565b5f819050919050565b61373b81613729565b8114613745575f5ffd5b50565b5f8151905061375681613732565b92915050565b5f8151905061376a81612be7565b92915050565b5f5f5f5f5f60a0868803121561378957613788612b23565b5b5f61379688828901613715565b95505060206137a788828901613748565b94505060406137b88882890161375c565b93505060606137c98882890161375c565b92505060806137da88828901613715565b9150509295509295909350565b5f6040820190506137fa5f830185612d24565b6138076020830184612c3c565b939250505056fea2646970667358221220f939a3de4c90a233b94f704e917feb3f1e0695773b9c21ec046ab0bee3278b4264736f6c63430008230033","linkReferences":{}},"methodIdentifiers":{"MAX_STALENESS()":"caca95a4","PLATFORM_FEE_PCT()":"804148a3","RESALE_CAP_PCT()":"98107b48","approve(address,uint256)":"095ea7b3","balanceOf(address)":"70a08231","buyResale(uint256)":"b54baacf","buyTicket()":"edca914c","countForSale(uint256[])":"9c0f2d3b","getApproved(uint256)":"081812fc","isApprovedForAll(address,address)":"e985e9c5","listForResale(uint256,uint256)":"1f7d863c","name()":"06fdde03","oracle()":"7dc0d1d0","organizer()":"61203265","ownerOf(uint256)":"6352211e","pause()":"8456cb59","paused()":"5c975abb","pendingWithdrawals(address)":"f3f43703","purchasePrice(uint256)":"77fbc4ae","resalePrice(uint256)":"0384ca49","safeTransferFrom(address,address,uint256)":"42842e0e","safeTransferFrom(address,address,uint256,bytes)":"b88d4fde","setApprovalForAll(address,bool)":"a22cb465","supportsInterface(bytes4)":"01ffc9a7","symbol()":"95d89b41","ticketPriceEur()":"a5c2487a","tokenURI(uint256)":"c87b56dd","totalTickets()":"dd11247e","transferFrom(address,address,uint256)":"23b872dd","unpause()":"3f4ba83a","withdraw()":"3ccfd60b"},"id":37}