{"abi":[{"type":"constructor","inputs":[{"name":"totalTickets_","type":"uint256","internalType":"uint256"},{"name":"ticketPriceEur_","type":"uint256","internalType":"uint256"},{"name":"oracle_","type":"address","internalType":"address"}],"stateMutability":"nonpayable"},{"type":"function","name":"MAX_STALENESS","inputs":[],"outputs":[{"name":"","type":"uint256","internalType":"uint256"}],"stateMutability":"view"},{"type":"function","name":"RESALE_CAP_PCT","inputs":[],"outputs":[{"name":"","type":"uint256","internalType":"uint256"}],"stateMutability":"view"},{"type":"function","name":"approve","inputs":[{"name":"to","type":"address","internalType":"address"},{"name":"tokenId","type":"uint256","internalType":"uint256"}],"outputs":[],"stateMutability":"nonpayable"},{"type":"function","name":"balanceOf","inputs":[{"name":"owner","type":"address","internalType":"address"}],"outputs":[{"name":"","type":"uint256","internalType":"uint256"}],"stateMutability":"view"},{"type":"function","name":"buyResale","inputs":[{"name":"tokenId","type":"uint256","internalType":"uint256"}],"outputs":[],"stateMutability":"payable"},{"type":"function","name":"buyTicket","inputs":[],"outputs":[],"stateMutability":"payable"},{"type":"function","name":"countForSale","inputs":[{"name":"tokenIds","type":"uint256[]","internalType":"uint256[]"}],"outputs":[{"name":"count","type":"uint256","internalType":"uint256"}],"stateMutability":"view"},{"type":"function","name":"getApproved","inputs":[{"name":"tokenId","type":"uint256","internalType":"uint256"}],"outputs":[{"name":"","type":"address","internalType":"address"}],"stateMutability":"view"},{"type":"function","name":"isApprovedForAll","inputs":[{"name":"owner","type":"address","internalType":"address"},{"name":"operator","type":"address","internalType":"address"}],"outputs":[{"name":"","type":"bool","internalType":"bool"}],"stateMutability":"view"},{"type":"function","name":"listForResale","inputs":[{"name":"tokenId","type":"uint256","internalType":"uint256"},{"name":"price","type":"uint256","internalType":"uint256"}],"outputs":[],"stateMutability":"nonpayable"},{"type":"function","name":"name","inputs":[],"outputs":[{"name":"","type":"string","internalType":"string"}],"stateMutability":"view"},{"type":"function","name":"oracle","inputs":[],"outputs":[{"name":"","type":"address","internalType":"contract IExchangeRateOracle"}],"stateMutability":"view"},{"type":"function","name":"organizer","inputs":[],"outputs":[{"name":"","type":"address","internalType":"address"}],"stateMutability":"view"},{"type":"function","name":"ownerOf","inputs":[{"name":"tokenId","type":"uint256","internalType":"uint256"}],"outputs":[{"name":"","type":"address","internalType":"address"}],"stateMutability":"view"},{"type":"function","name":"pendingWithdrawals","inputs":[{"name":"","type":"address","internalType":"address"}],"outputs":[{"name":"","type":"uint256","internalType":"uint256"}],"stateMutability":"view"},{"type":"function","name":"purchasePrice","inputs":[{"name":"","type":"uint256","internalType":"uint256"}],"outputs":[{"name":"","type":"uint256","internalType":"uint256"}],"stateMutability":"view"},{"type":"function","name":"resalePrice","inputs":[{"name":"","type":"uint256","internalType":"uint256"}],"outputs":[{"name":"","type":"uint256","internalType":"uint256"}],"stateMutability":"view"},{"type":"function","name":"safeTransferFrom","inputs":[{"name":"from","type":"address","internalType":"address"},{"name":"to","type":"address","internalType":"address"},{"name":"tokenId","type":"uint256","internalType":"uint256"}],"outputs":[],"stateMutability":"nonpayable"},{"type":"function","name":"safeTransferFrom","inputs":[{"name":"from","type":"address","internalType":"address"},{"name":"to","type":"address","internalType":"address"},{"name":"tokenId","type":"uint256","internalType":"uint256"},{"name":"data","type":"bytes","internalType":"bytes"}],"outputs":[],"stateMutability":"nonpayable"},{"type":"function","name":"setApprovalForAll","inputs":[{"name":"operator","type":"address","internalType":"address"},{"name":"approved","type":"bool","internalType":"bool"}],"outputs":[],"stateMutability":"nonpayable"},{"type":"function","name":"supportsInterface","inputs":[{"name":"interfaceId","type":"bytes4","internalType":"bytes4"}],"outputs":[{"name":"","type":"bool","internalType":"bool"}],"stateMutability":"view"},{"type":"function","name":"symbol","inputs":[],"outputs":[{"name":"","type":"string","internalType":"string"}],"stateMutability":"view"},{"type":"function","name":"ticketPriceEur","inputs":[],"outputs":[{"name":"","type":"uint256","internalType":"uint256"}],"stateMutability":"view"},{"type":"function","name":"tokenURI","inputs":[{"name":"tokenId","type":"uint256","internalType":"uint256"}],"outputs":[{"name":"","type":"string","internalType":"string"}],"stateMutability":"view"},{"type":"function","name":"totalTickets","inputs":[],"outputs":[{"name":"","type":"uint256","internalType":"uint256"}],"stateMutability":"view"},{"type":"function","name":"transferFrom","inputs":[{"name":"from","type":"address","internalType":"address"},{"name":"to","type":"address","internalType":"address"},{"name":"tokenId","type":"uint256","internalType":"uint256"}],"outputs":[],"stateMutability":"nonpayable"},{"type":"function","name":"withdraw","inputs":[],"outputs":[],"stateMutability":"nonpayable"},{"type":"event","name":"Approval","inputs":[{"name":"owner","type":"address","indexed":true,"internalType":"address"},{"name":"approved","type":"address","indexed":true,"internalType":"address"},{"name":"tokenId","type":"uint256","indexed":true,"internalType":"uint256"}],"anonymous":false},{"type":"event","name":"ApprovalForAll","inputs":[{"name":"owner","type":"address","indexed":true,"internalType":"address"},{"name":"operator","type":"address","indexed":true,"internalType":"address"},{"name":"approved","type":"bool","indexed":false,"internalType":"bool"}],"anonymous":false},{"type":"event","name":"TicketListed","inputs":[{"name":"tokenId","type":"uint256","indexed":true,"internalType":"uint256"},{"name":"seller","type":"address","indexed":true,"internalType":"address"},{"name":"priceWei","type":"uint256","indexed":false,"internalType":"uint256"}],"anonymous":false},{"type":"event","name":"TicketMinted","inputs":[{"name":"tokenId","type":"uint256","indexed":true,"internalType":"uint256"},{"name":"buyer","type":"address","indexed":true,"internalType":"address"},{"name":"priceWei","type":"uint256","indexed":false,"internalType":"uint256"}],"anonymous":false},{"type":"event","name":"TicketSold","inputs":[{"name":"tokenId","type":"uint256","indexed":true,"internalType":"uint256"},{"name":"buyer","type":"address","indexed":true,"internalType":"address"},{"name":"seller","type":"address","indexed":true,"internalType":"address"},{"name":"priceWei","type":"uint256","indexed":false,"internalType":"uint256"}],"anonymous":false},{"type":"event","name":"Transfer","inputs":[{"name":"from","type":"address","indexed":true,"internalType":"address"},{"name":"to","type":"address","indexed":true,"internalType":"address"},{"name":"tokenId","type":"uint256","indexed":true,"internalType":"uint256"}],"anonymous":false},{"type":"event","name":"Withdrawn","inputs":[{"name":"account","type":"address","indexed":true,"internalType":"address"},{"name":"amount","type":"uint256","indexed":false,"internalType":"uint256"}],"anonymous":false},{"type":"error","name":"ERC721IncorrectOwner","inputs":[{"name":"sender","type":"address","internalType":"address"},{"name":"tokenId","type":"uint256","internalType":"uint256"},{"name":"owner","type":"address","internalType":"address"}]},{"type":"error","name":"ERC721InsufficientApproval","inputs":[{"name":"operator","type":"address","internalType":"address"},{"name":"tokenId","type":"uint256","internalType":"uint256"}]},{"type":"error","name":"ERC721InvalidApprover","inputs":[{"name":"approver","type":"address","internalType":"address"}]},{"type":"error","name":"ERC721InvalidOperator","inputs":[{"name":"operator","type":"address","internalType":"address"}]},{"type":"error","name":"ERC721InvalidOwner","inputs":[{"name":"owner","type":"address","internalType":"address"}]},{"type":"error","name":"ERC721InvalidReceiver","inputs":[{"name":"receiver","type":"address","internalType":"address"}]},{"type":"error","name":"ERC721InvalidSender","inputs":[{"name":"sender","type":"address","internalType":"address"}]},{"type":"error","name":"ERC721NonexistentToken","inputs":[{"name":"tokenId","type":"uint256","internalType":"uint256"}]},{"type":"error","name":"InvalidOracleAnswer","inputs":[]},{"type":"error","name":"NotApproved","inputs":[]},{"type":"error","name":"NotForSale","inputs":[]},{"type":"error","name":"NotTicketOwner","inputs":[]},{"type":"error","name":"NothingToWithdraw","inputs":[]},{"type":"error","name":"PriceTooHigh","inputs":[{"name":"maxAllowed","type":"uint256","internalType":"uint256"},{"name":"requested","type":"uint256","internalType":"uint256"}]},{"type":"error","name":"ReentrancyGuardReentrantCall","inputs":[]},{"type":"error","name":"SoldOut","inputs":[]},{"type":"error","name":"StaleOracle","inputs":[]},{"type":"error","name":"WrongPayment","inputs":[{"name":"expected","type":"uint256","internalType":"uint256"},{"name":"sent","type":"uint256","internalType":"uint256"}]}],"bytecode":{"object":"0x610100604052348015610010575f5ffd5b506040516137c53803806137c583398181016040528101906100329190610226565b6040518060400160405280600b81526020017f42696c6c6574436861696e0000000000000000000000000000000000000000008152506040518060400160405280600681526020017f42494c4c45540000000000000000000000000000000000000000000000000000815250815f90816100ac91906104bb565b5080600190816100bc91906104bb565b50505060016100dd6100d261016360201b60201c565b61018c60201b60201c565b5f018190555082608081815250508160a081815250508073ffffffffffffffffffffffffffffffffffffffff1660e08173ffffffffffffffffffffffffffffffffffffffff16815250503373ffffffffffffffffffffffffffffffffffffffff1660c08173ffffffffffffffffffffffffffffffffffffffff168152505050505061058a565b5f7f9b779b17422d0df92223018b32b4d1fa46e071723d6817e2486d003becc55f005f1b905090565b5f819050919050565b5f5ffd5b5f819050919050565b6101ab81610199565b81146101b5575f5ffd5b50565b5f815190506101c6816101a2565b92915050565b5f73ffffffffffffffffffffffffffffffffffffffff82169050919050565b5f6101f5826101cc565b9050919050565b610205816101eb565b811461020f575f5ffd5b50565b5f81519050610220816101fc565b92915050565b5f5f5f6060848603121561023d5761023c610195565b5b5f61024a868287016101b8565b935050602061025b868287016101b8565b925050604061026c86828701610212565b9150509250925092565b5f81519050919050565b7f4e487b71000000000000000000000000000000000000000000000000000000005f52604160045260245ffd5b7f4e487b71000000000000000000000000000000000000000000000000000000005f52602260045260245ffd5b5f60028204905060018216806102f157607f821691505b602082108103610304576103036102ad565b5b50919050565b5f819050815f5260205f209050919050565b5f6020601f8301049050919050565b5f82821b905092915050565b5f600883026103667fffffffffffffffffffffffffffffffffffffffffffffffffffffffffffffffff8261032b565b610370868361032b565b95508019841693508086168417925050509392505050565b5f819050919050565b5f6103ab6103a66103a184610199565b610388565b610199565b9050919050565b5f819050919050565b6103c483610391565b6103d86103d0826103b2565b848454610337565b825550505050565b5f5f905090565b6103ef6103e0565b6103fa8184846103bb565b505050565b5f5b82811015610420576104155f8284016103e7565b600181019050610401565b505050565b601f82111561047357828211156104725761043f8161030a565b6104488361031c565b6104518561031c565b602086101561045e575f90505b80830161046d828403826103ff565b505050505b5b505050565b5f82821c905092915050565b5f6104935f1984600802610478565b1980831691505092915050565b5f6104ab8383610484565b9150826002028217905092915050565b6104c482610276565b67ffffffffffffffff8111156104dd576104dc610280565b5b6104e782546102da565b6104f2828285610425565b5f60209050601f831160018114610523575f8415610511578287015190505b61051b85826104a0565b865550610582565b601f1984166105318661030a565b5f5b8281101561055857848901518255600182019150602085019450602081019050610533565b868310156105755784890151610571601f891682610484565b8355505b6001600288020188555050505b505050505050565b60805160a05160c05160e0516131ec6105d95f395f8181610ddc0152611da901525f8181610cdc015261136801525f8181610f0d0152611eca01525f81816111d3015261128d01526131ec5ff3fe60806040526004361061019b575f3560e01c80637dc0d1d0116100eb578063b88d4fde11610089578063dd11247e11610063578063dd11247e146105c7578063e985e9c5146105f1578063edca914c1461062d578063f3f43703146106375761019b565b8063b88d4fde14610539578063c87b56dd14610561578063caca95a41461059d5761019b565b80639c0f2d3b116100c55780639c0f2d3b1461048f578063a22cb465146104cb578063a5c2487a146104f3578063b54baacf1461051d5761019b565b80637dc0d1d01461041157806395d89b411461043b57806398107b48146104655761019b565b806323b872dd11610158578063612032651161013257806361203265146103335780636352211e1461035d57806370a082311461039957806377fbc4ae146103d55761019b565b806323b872dd146102cd5780633ccfd60b146102f557806342842e0e1461030b5761019b565b806301ffc9a71461019f5780630384ca49146101db57806306fdde0314610217578063081812fc14610241578063095ea7b31461027d5780631f7d863c146102a5575b5f5ffd5b3480156101aa575f5ffd5b506101c560048036038101906101c091906125f8565b610673565b6040516101d2919061263d565b60405180910390f35b3480156101e6575f5ffd5b5061020160048036038101906101fc9190612689565b610754565b60405161020e91906126c3565b60405180910390f35b348015610222575f5ffd5b5061022b610769565b604051610238919061274c565b60405180910390f35b34801561024c575f5ffd5b5061026760048036038101906102629190612689565b6107f8565b60405161027491906127ab565b60405180910390f35b348015610288575f5ffd5b506102a3600480360381019061029e91906127ee565b610813565b005b3480156102b0575f5ffd5b506102cb60048036038101906102c6919061282c565b610829565b005b3480156102d8575f5ffd5b506102f360048036038101906102ee919061286a565b6109f6565b005b348015610300575f5ffd5b50610309610af5565b005b348015610316575f5ffd5b50610331600480360381019061032c919061286a565b610cbb565b005b34801561033e575f5ffd5b50610347610cda565b60405161035491906127ab565b60405180910390f35b348015610368575f5ffd5b50610383600480360381019061037e9190612689565b610cfe565b60405161039091906127ab565b60405180910390f35b3480156103a4575f5ffd5b506103bf60048036038101906103ba91906128ba565b610d0f565b6040516103cc91906126c3565b60405180910390f35b3480156103e0575f5ffd5b506103fb60048036038101906103f69190612689565b610dc5565b60405161040891906126c3565b60405180910390f35b34801561041c575f5ffd5b50610425610dda565b6040516104329190612940565b60405180910390f35b348015610446575f5ffd5b5061044f610dfe565b60405161045c919061274c565b60405180910390f35b348015610470575f5ffd5b50610479610e8e565b60405161048691906126c3565b60405180910390f35b34801561049a575f5ffd5b506104b560048036038101906104b091906129ba565b610e93565b6040516104c291906126c3565b60405180910390f35b3480156104d6575f5ffd5b506104f160048036038101906104ec9190612a2f565b610ef5565b005b3480156104fe575f5ffd5b50610507610f0b565b60405161051491906126c3565b60405180910390f35b61053760048036038101906105329190612689565b610f2f565b005b348015610544575f5ffd5b5061055f600480360381019061055a9190612b95565b611140565b005b34801561056c575f5ffd5b5061058760048036038101906105829190612689565b611165565b604051610594919061274c565b60405180910390f35b3480156105a8575f5ffd5b506105b16111cb565b6040516105be91906126c3565b60405180910390f35b3480156105d2575f5ffd5b506105db6111d1565b6040516105e891906126c3565b60405180910390f35b3480156105fc575f5ffd5b5061061760048036038101906106129190612c15565b6111f5565b604051610624919061263d565b60405180910390f35b610635611283565b005b348015610642575f5ffd5b5061065d600480360381019061065891906128ba565b61143a565b60405161066a91906126c3565b60405180910390f35b5f7f80ac58cd000000000000000000000000000000000000000000000000000000007bffffffffffffffffffffffffffffffffffffffffffffffffffffffff1916827bffffffffffffffffffffffffffffffffffffffffffffffffffffffff1916148061073d57507f5b5e139f000000000000000000000000000000000000000000000000000000007bffffffffffffffffffffffffffffffffffffffffffffffffffffffff1916827bffffffffffffffffffffffffffffffffffffffffffffffffffffffff1916145b8061074d575061074c8261144f565b5b9050919050565b6008602052805f5260405f205f915090505481565b60605f805461077790612c80565b80601f01602080910402602001604051908101604052809291908181526020018280546107a390612c80565b80156107ee5780601f106107c5576101008083540402835291602001916107ee565b820191905f5260205f20905b8154815290600101906020018083116107d157829003601f168201915b5050505050905090565b5f610802826114b8565b5061080c8261153e565b9050919050565b6108258282610820611577565b61157e565b5050565b3373ffffffffffffffffffffffffffffffffffffffff1661084983610cfe565b73ffffffffffffffffffffffffffffffffffffffff1614610896576040517fe18d39ad00000000000000000000000000000000000000000000000000000000815260040160405180910390fd5b5f6064606e60075f8681526020019081526020015f20546108b79190612cdd565b6108c19190612d4b565b90508082111561090a5780826040517f87ebe85d000000000000000000000000000000000000000000000000000000008152600401610901929190612d7b565b60405180910390fd5b3073ffffffffffffffffffffffffffffffffffffffff1661092a846107f8565b73ffffffffffffffffffffffffffffffffffffffff1614158015610955575061095333306111f5565b155b1561098c576040517fc19f17a900000000000000000000000000000000000000000000000000000000815260040160405180910390fd5b8160085f8581526020019081526020015f20819055503373ffffffffffffffffffffffffffffffffffffffff16837f22968ec3be3687b180f3544163a034b88d57b48159d9a7e9a1b610fdb2d05f80846040516109e991906126c3565b60405180910390a3505050565b5f73ffffffffffffffffffffffffffffffffffffffff168273ffffffffffffffffffffffffffffffffffffffff1603610a66575f6040517f64a0ae92000000000000000000000000000000000000000000000000000000008152600401610a5d91906127ab565b60405180910390fd5b5f610a798383610a74611577565b611590565b90508373ffffffffffffffffffffffffffffffffffffffff168173ffffffffffffffffffffffffffffffffffffffff1614610aef578382826040517f64283d7b000000000000000000000000000000000000000000000000000000008152600401610ae693929190612da2565b60405180910390fd5b50505050565b610afd61179b565b5f60095f3373ffffffffffffffffffffffffffffffffffffffff1673ffffffffffffffffffffffffffffffffffffffff1681526020019081526020015f205490505f8103610b77576040517fd0d04f6000000000000000000000000000000000000000000000000000000000815260040160405180910390fd5b5f60095f3373ffffffffffffffffffffffffffffffffffffffff1673ffffffffffffffffffffffffffffffffffffffff1681526020019081526020015f20819055505f3373ffffffffffffffffffffffffffffffffffffffff1682604051610bde90612e04565b5f6040518083038185875af1925050503d805f8114610c18576040519150601f19603f3d011682016040523d82523d5f602084013e610c1d565b606091505b5050905080610c61576040517f08c379a0000000000000000000000000000000000000000000000000000000008152600401610c5890612e62565b60405180910390fd5b3373ffffffffffffffffffffffffffffffffffffffff167f7084f5476618d8e60b11ef0d7d3f06914655adb8793e28ff7f018d4c76d505d583604051610ca791906126c3565b60405180910390a25050610cb96117bd565b565b610cd583838360405180602001604052805f815250611140565b505050565b7f000000000000000000000000000000000000000000000000000000000000000081565b5f610d08826114b8565b9050919050565b5f5f73ffffffffffffffffffffffffffffffffffffffff168273ffffffffffffffffffffffffffffffffffffffff1603610d80575f6040517f89c62b64000000000000000000000000000000000000000000000000000000008152600401610d7791906127ab565b60405180910390fd5b60035f8373ffffffffffffffffffffffffffffffffffffffff1673ffffffffffffffffffffffffffffffffffffffff1681526020019081526020015f20549050919050565b6007602052805f5260405f205f915090505481565b7f000000000000000000000000000000000000000000000000000000000000000081565b606060018054610e0d90612c80565b80601f0160208091040260200160405190810160405280929190818152602001828054610e3990612c80565b8015610e845780601f10610e5b57610100808354040283529160200191610e84565b820191905f5260205f20905b815481529060010190602001808311610e6757829003601f168201915b5050505050905090565b606e81565b5f5f5f90505b83839050811015610eee575f60085f868685818110610ebb57610eba612e80565b5b9050602002013581526020019081526020015f20541115610ee35781610ee090612ead565b91505b806001019050610e99565b5092915050565b610f07610f00611577565b83836117d7565b5050565b7f000000000000000000000000000000000000000000000000000000000000000081565b610f3761179b565b5f60085f8381526020019081526020015f205490505f8103610f85576040517f1d99ddbf00000000000000000000000000000000000000000000000000000000815260040160405180910390fd5b803414610fcb5780346040517f0dd32d1c000000000000000000000000000000000000000000000000000000008152600401610fc2929190612d7b565b60405180910390fd5b5f610fd583610cfe565b90503073ffffffffffffffffffffffffffffffffffffffff16610ff7846107f8565b73ffffffffffffffffffffffffffffffffffffffff1614158015611022575061102081306111f5565b155b15611059576040517fc19f17a900000000000000000000000000000000000000000000000000000000815260040160405180910390fd5b5f60085f8581526020019081526020015f20819055508160095f8373ffffffffffffffffffffffffffffffffffffffff1673ffffffffffffffffffffffffffffffffffffffff1681526020019081526020015f205f8282546110bb9190612ef4565b925050819055506110cd8133856119b0565b8073ffffffffffffffffffffffffffffffffffffffff163373ffffffffffffffffffffffffffffffffffffffff16847f2bbc64d6afd28a753f6c5e4aaa894f1d684c44a0e080167eae104ac8505cfebd8560405161112b91906126c3565b60405180910390a4505061113d6117bd565b50565b61114b8484846109f6565b61115f611156611577565b85858585611b18565b50505050565b6060611170826114b8565b505f61117a611cc4565b90505f8151116111985760405180602001604052805f8152506111c3565b806111a284611cda565b6040516020016111b3929190612f61565b6040516020818303038152906040525b915050919050565b610e1081565b7f000000000000000000000000000000000000000000000000000000000000000081565b5f60055f8473ffffffffffffffffffffffffffffffffffffffff1673ffffffffffffffffffffffffffffffffffffffff1681526020019081526020015f205f8373ffffffffffffffffffffffffffffffffffffffff1673ffffffffffffffffffffffffffffffffffffffff1681526020019081526020015f205f9054906101000a900460ff16905092915050565b61128b61179b565b7f0000000000000000000000000000000000000000000000000000000000000000600654106112e6576040517f52df9fe500000000000000000000000000000000000000000000000000000000815260040160405180910390fd5b5f6112ef611da4565b90508034146113375780346040517f0dd32d1c00000000000000000000000000000000000000000000000000000000815260040161132e929190612d7b565b60405180910390fd5b5f600654905060065f8154600101919050819055508160075f8381526020019081526020015f20819055508160095f7f000000000000000000000000000000000000000000000000000000000000000073ffffffffffffffffffffffffffffffffffffffff1673ffffffffffffffffffffffffffffffffffffffff1681526020019081526020015f205f8282546113ce9190612ef4565b925050819055506113df3382611f04565b3373ffffffffffffffffffffffffffffffffffffffff16817f5c1c9352d51031acc9a558d7cdcca15b0ce5fe4f46d7315cca355248175b0a378460405161142691906126c3565b60405180910390a350506114386117bd565b565b6009602052805f5260405f205f915090505481565b5f7f01ffc9a7000000000000000000000000000000000000000000000000000000007bffffffffffffffffffffffffffffffffffffffffffffffffffffffff1916827bffffffffffffffffffffffffffffffffffffffffffffffffffffffff1916149050919050565b5f5f6114c383611f21565b90505f73ffffffffffffffffffffffffffffffffffffffff168173ffffffffffffffffffffffffffffffffffffffff160361153557826040517f7e27328900000000000000000000000000000000000000000000000000000000815260040161152c91906126c3565b60405180910390fd5b80915050919050565b5f60045f8381526020019081526020015f205f9054906101000a900473ffffffffffffffffffffffffffffffffffffffff169050919050565b5f33905090565b61158b8383836001611f5a565b505050565b5f5f61159b84611f21565b90505f73ffffffffffffffffffffffffffffffffffffffff168373ffffffffffffffffffffffffffffffffffffffff16146115dc576115db818486612119565b5b5f73ffffffffffffffffffffffffffffffffffffffff168173ffffffffffffffffffffffffffffffffffffffff16146116675761161b5f855f5f611f5a565b600160035f8373ffffffffffffffffffffffffffffffffffffffff1673ffffffffffffffffffffffffffffffffffffffff1681526020019081526020015f205f82825403925050819055505b5f73ffffffffffffffffffffffffffffffffffffffff168573ffffffffffffffffffffffffffffffffffffffff16146116e657600160035f8773ffffffffffffffffffffffffffffffffffffffff1673ffffffffffffffffffffffffffffffffffffffff1681526020019081526020015f205f82825401925050819055505b8460025f8681526020019081526020015f205f6101000a81548173ffffffffffffffffffffffffffffffffffffffff021916908373ffffffffffffffffffffffffffffffffffffffff160217905550838573ffffffffffffffffffffffffffffffffffffffff168273ffffffffffffffffffffffffffffffffffffffff167fddf252ad1be2c89b69c2b068fc378daa952ba7f163c4a11628f55a4df523b3ef60405160405180910390a4809150509392505050565b6117a36121dc565b60026117b56117b061221d565b612246565b5f0181905550565b60016117cf6117ca61221d565b612246565b5f0181905550565b5f73ffffffffffffffffffffffffffffffffffffffff168373ffffffffffffffffffffffffffffffffffffffff1603611847575f6040517fa9fbf51f00000000000000000000000000000000000000000000000000000000815260040161183e91906127ab565b60405180910390fd5b5f73ffffffffffffffffffffffffffffffffffffffff168273ffffffffffffffffffffffffffffffffffffffff16036118b757816040517f5b08ba180000000000000000000000000000000000000000000000000000000081526004016118ae91906127ab565b60405180910390fd5b8060055f8573ffffffffffffffffffffffffffffffffffffffff1673ffffffffffffffffffffffffffffffffffffffff1681526020019081526020015f205f8473ffffffffffffffffffffffffffffffffffffffff1673ffffffffffffffffffffffffffffffffffffffff1681526020019081526020015f205f6101000a81548160ff0219169083151502179055508173ffffffffffffffffffffffffffffffffffffffff168373ffffffffffffffffffffffffffffffffffffffff167f17307eab39ab6107e8899845ad3d59bd9653f200f220920489ca2b5937696c31836040516119a3919061263d565b60405180910390a3505050565b5f73ffffffffffffffffffffffffffffffffffffffff168273ffffffffffffffffffffffffffffffffffffffff1603611a20575f6040517f64a0ae92000000000000000000000000000000000000000000000000000000008152600401611a1791906127ab565b60405180910390fd5b5f611a2c83835f611590565b90505f73ffffffffffffffffffffffffffffffffffffffff168173ffffffffffffffffffffffffffffffffffffffff1603611a9e57816040517f7e273289000000000000000000000000000000000000000000000000000000008152600401611a9591906126c3565b60405180910390fd5b8373ffffffffffffffffffffffffffffffffffffffff168173ffffffffffffffffffffffffffffffffffffffff1614611b12578382826040517f64283d7b000000000000000000000000000000000000000000000000000000008152600401611b0993929190612da2565b60405180910390fd5b50505050565b5f8373ffffffffffffffffffffffffffffffffffffffff163b1115611cbd578273ffffffffffffffffffffffffffffffffffffffff1663150b7a02868685856040518563ffffffff1660e01b8152600401611b769493929190612fd6565b6020604051808303815f875af1925050508015611bb157506040513d601f19601f82011682018060405250810190611bae9190613034565b60015b611c32573d805f8114611bdf576040519150601f19603f3d011682016040523d82523d5f602084013e611be4565b606091505b505f815103611c2a57836040517f64a0ae92000000000000000000000000000000000000000000000000000000008152600401611c2191906127ab565b60405180910390fd5b805160208201fd5b63150b7a0260e01b7bffffffffffffffffffffffffffffffffffffffffffffffffffffffff1916817bffffffffffffffffffffffffffffffffffffffffffffffffffffffff191614611cbb57836040517f64a0ae92000000000000000000000000000000000000000000000000000000008152600401611cb291906127ab565b60405180910390fd5b505b5050505050565b606060405180602001604052805f815250905090565b60605f6001611ce88461224f565b0190505f8167ffffffffffffffff811115611d0657611d05612a71565b5b6040519080825280601f01601f191660200182016040528015611d385781602001600182028036833780820191505090505b5090505f82602083010190505b600115611d99578080600190039150507f3031323334353637383961626364656600000000000000000000000000000000600a86061a8153600a8581611d8e57611d8d612d1e565b5b0494505f8503611d45575b819350505050919050565b5f5f5f7f000000000000000000000000000000000000000000000000000000000000000073ffffffffffffffffffffffffffffffffffffffff1663feaf968c6040518163ffffffff1660e01b815260040160a060405180830381865afa158015611e10573d5f5f3e3d5ffd5b505050506040513d601f19601f82011682018060405250810190611e3491906130e5565b509350509250505f8213611e74576040517fa43e854600000000000000000000000000000000000000000000000000000000815260040160405180910390fd5b610e108142611e83919061315c565b1115611ebb576040517f88cce42900000000000000000000000000000000000000000000000000000000815260040160405180910390fd5b816a52b7d2dcc80cd2e40000007f0000000000000000000000000000000000000000000000000000000000000000611ef39190612cdd565b611efd9190612d4b565b9250505090565b611f1d828260405180602001604052805f8152506123a0565b5050565b5f60025f8381526020019081526020015f205f9054906101000a900473ffffffffffffffffffffffffffffffffffffffff169050919050565b8080611f9257505f73ffffffffffffffffffffffffffffffffffffffff168273ffffffffffffffffffffffffffffffffffffffff1614155b156120c4575f611fa1846114b8565b90505f73ffffffffffffffffffffffffffffffffffffffff168373ffffffffffffffffffffffffffffffffffffffff161415801561200b57508273ffffffffffffffffffffffffffffffffffffffff168173ffffffffffffffffffffffffffffffffffffffff1614155b801561201e575061201c81846111f5565b155b1561206057826040517fa9fbf51f00000000000000000000000000000000000000000000000000000000815260040161205791906127ab565b60405180910390fd5b81156120c257838573ffffffffffffffffffffffffffffffffffffffff168273ffffffffffffffffffffffffffffffffffffffff167f8c5be1e5ebec7d5bd14f71427d1e84f3dd0314c0f7b2291e5b200ac8c7c3b92560405160405180910390a45b505b8360045f8581526020019081526020015f205f6101000a81548173ffffffffffffffffffffffffffffffffffffffff021916908373ffffffffffffffffffffffffffffffffffffffff16021790555050505050565b6121248383836123c3565b6121d7575f73ffffffffffffffffffffffffffffffffffffffff168373ffffffffffffffffffffffffffffffffffffffff160361219857806040517f7e27328900000000000000000000000000000000000000000000000000000000815260040161218f91906126c3565b60405180910390fd5b81816040517f177e802f0000000000000000000000000000000000000000000000000000000081526004016121ce92919061318f565b60405180910390fd5b505050565b6121e4612483565b1561221b576040517f3ee5aeb500000000000000000000000000000000000000000000000000000000815260040160405180910390fd5b565b5f7f9b779b17422d0df92223018b32b4d1fa46e071723d6817e2486d003becc55f005f1b905090565b5f819050919050565b5f5f5f90507a184f03e93ff9f4daa797ed6e38ed64bf6a1f01000000000000000083106122ab577a184f03e93ff9f4daa797ed6e38ed64bf6a1f01000000000000000083816122a1576122a0612d1e565b5b0492506040810190505b6d04ee2d6d415b85acef810000000083106122e8576d04ee2d6d415b85acef810000000083816122de576122dd612d1e565b5b0492506020810190505b662386f26fc10000831061231757662386f26fc10000838161230d5761230c612d1e565b5b0492506010810190505b6305f5e1008310612340576305f5e100838161233657612335612d1e565b5b0492506008810190505b612710831061236557612710838161235b5761235a612d1e565b5b0492506004810190505b60648310612388576064838161237e5761237d612d1e565b5b0492506002810190505b600a8310612397576001810190505b80915050919050565b6123aa838361249f565b6123be6123b5611577565b5f858585611b18565b505050565b5f5f73ffffffffffffffffffffffffffffffffffffffff168373ffffffffffffffffffffffffffffffffffffffff161415801561247a57508273ffffffffffffffffffffffffffffffffffffffff168473ffffffffffffffffffffffffffffffffffffffff16148061243b575061243a84846111f5565b5b8061247957508273ffffffffffffffffffffffffffffffffffffffff166124618361153e565b73ffffffffffffffffffffffffffffffffffffffff16145b5b90509392505050565b5f600261249661249161221d565b612246565b5f015414905090565b5f73ffffffffffffffffffffffffffffffffffffffff168273ffffffffffffffffffffffffffffffffffffffff160361250f575f6040517f64a0ae9200000000000000000000000000000000000000000000000000000000815260040161250691906127ab565b60405180910390fd5b5f61251b83835f611590565b90505f73ffffffffffffffffffffffffffffffffffffffff168173ffffffffffffffffffffffffffffffffffffffff161461258d575f6040517f73c6ac6e00000000000000000000000000000000000000000000000000000000815260040161258491906127ab565b60405180910390fd5b505050565b5f604051905090565b5f5ffd5b5f5ffd5b5f7fffffffff0000000000000000000000000000000000000000000000000000000082169050919050565b6125d7816125a3565b81146125e1575f5ffd5b50565b5f813590506125f2816125ce565b92915050565b5f6020828403121561260d5761260c61259b565b5b5f61261a848285016125e4565b91505092915050565b5f8115159050919050565b61263781612623565b82525050565b5f6020820190506126505f83018461262e565b92915050565b5f819050919050565b61266881612656565b8114612672575f5ffd5b50565b5f813590506126838161265f565b92915050565b5f6020828403121561269e5761269d61259b565b5b5f6126ab84828501612675565b91505092915050565b6126bd81612656565b82525050565b5f6020820190506126d65f8301846126b4565b92915050565b5f81519050919050565b5f82825260208201905092915050565b8281835e5f83830152505050565b5f601f19601f8301169050919050565b5f61271e826126dc565b61272881856126e6565b93506127388185602086016126f6565b61274181612704565b840191505092915050565b5f6020820190508181035f8301526127648184612714565b905092915050565b5f73ffffffffffffffffffffffffffffffffffffffff82169050919050565b5f6127958261276c565b9050919050565b6127a58161278b565b82525050565b5f6020820190506127be5f83018461279c565b92915050565b6127cd8161278b565b81146127d7575f5ffd5b50565b5f813590506127e8816127c4565b92915050565b5f5f604083850312156128045761280361259b565b5b5f612811858286016127da565b925050602061282285828601612675565b9150509250929050565b5f5f604083850312156128425761284161259b565b5b5f61284f85828601612675565b925050602061286085828601612675565b9150509250929050565b5f5f5f606084860312156128815761288061259b565b5b5f61288e868287016127da565b935050602061289f868287016127da565b92505060406128b086828701612675565b9150509250925092565b5f602082840312156128cf576128ce61259b565b5b5f6128dc848285016127da565b91505092915050565b5f819050919050565b5f6129086129036128fe8461276c565b6128e5565b61276c565b9050919050565b5f612919826128ee565b9050919050565b5f61292a8261290f565b9050919050565b61293a81612920565b82525050565b5f6020820190506129535f830184612931565b92915050565b5f5ffd5b5f5ffd5b5f5ffd5b5f5f83601f84011261297a57612979612959565b5b8235905067ffffffffffffffff8111156129975761299661295d565b5b6020830191508360208202830111156129b3576129b2612961565b5b9250929050565b5f5f602083850312156129d0576129cf61259b565b5b5f83013567ffffffffffffffff8111156129ed576129ec61259f565b5b6129f985828601612965565b92509250509250929050565b612a0e81612623565b8114612a18575f5ffd5b50565b5f81359050612a2981612a05565b92915050565b5f5f60408385031215612a4557612a4461259b565b5b5f612a52858286016127da565b9250506020612a6385828601612a1b565b9150509250929050565b5f5ffd5b7f4e487b71000000000000000000000000000000000000000000000000000000005f52604160045260245ffd5b612aa782612704565b810181811067ffffffffffffffff82111715612ac657612ac5612a71565b5b80604052505050565b5f612ad8612592565b9050612ae48282612a9e565b919050565b5f67ffffffffffffffff821115612b0357612b02612a71565b5b612b0c82612704565b9050602081019050919050565b828183375f83830152505050565b5f612b39612b3484612ae9565b612acf565b905082815260208101848484011115612b5557612b54612a6d565b5b612b60848285612b19565b509392505050565b5f82601f830112612b7c57612b7b612959565b5b8135612b8c848260208601612b27565b91505092915050565b5f5f5f5f60808587031215612bad57612bac61259b565b5b5f612bba878288016127da565b9450506020612bcb878288016127da565b9350506040612bdc87828801612675565b925050606085013567ffffffffffffffff811115612bfd57612bfc61259f565b5b612c0987828801612b68565b91505092959194509250565b5f5f60408385031215612c2b57612c2a61259b565b5b5f612c38858286016127da565b9250506020612c49858286016127da565b9150509250929050565b7f4e487b71000000000000000000000000000000000000000000000000000000005f52602260045260245ffd5b5f6002820490506001821680612c9757607f821691505b602082108103612caa57612ca9612c53565b5b50919050565b7f4e487b71000000000000000000000000000000000000000000000000000000005f52601160045260245ffd5b5f612ce782612656565b9150612cf283612656565b9250828202612d0081612656565b91508282048414831517612d1757612d16612cb0565b5b5092915050565b7f4e487b71000000000000000000000000000000000000000000000000000000005f52601260045260245ffd5b5f612d5582612656565b9150612d6083612656565b925082612d7057612d6f612d1e565b5b828204905092915050565b5f604082019050612d8e5f8301856126b4565b612d9b60208301846126b4565b9392505050565b5f606082019050612db55f83018661279c565b612dc260208301856126b4565b612dcf604083018461279c565b949350505050565b5f81905092915050565b50565b5f612def5f83612dd7565b9150612dfa82612de1565b5f82019050919050565b5f612e0e82612de4565b9150819050919050565b7f5472616e73666572206661696c656400000000000000000000000000000000005f82015250565b5f612e4c600f836126e6565b9150612e5782612e18565b602082019050919050565b5f6020820190508181035f830152612e7981612e40565b9050919050565b7f4e487b71000000000000000000000000000000000000000000000000000000005f52603260045260245ffd5b5f612eb782612656565b91507fffffffffffffffffffffffffffffffffffffffffffffffffffffffffffffffff8203612ee957612ee8612cb0565b5b600182019050919050565b5f612efe82612656565b9150612f0983612656565b9250828201905080821115612f2157612f20612cb0565b5b92915050565b5f81905092915050565b5f612f3b826126dc565b612f458185612f27565b9350612f558185602086016126f6565b80840191505092915050565b5f612f6c8285612f31565b9150612f788284612f31565b91508190509392505050565b5f81519050919050565b5f82825260208201905092915050565b5f612fa882612f84565b612fb28185612f8e565b9350612fc28185602086016126f6565b612fcb81612704565b840191505092915050565b5f608082019050612fe95f83018761279c565b612ff6602083018661279c565b61300360408301856126b4565b81810360608301526130158184612f9e565b905095945050505050565b5f8151905061302e816125ce565b92915050565b5f602082840312156130495761304861259b565b5b5f61305684828501613020565b91505092915050565b5f69ffffffffffffffffffff82169050919050565b61307d8161305f565b8114613087575f5ffd5b50565b5f8151905061309881613074565b92915050565b5f819050919050565b6130b08161309e565b81146130ba575f5ffd5b50565b5f815190506130cb816130a7565b92915050565b5f815190506130df8161265f565b92915050565b5f5f5f5f5f60a086880312156130fe576130fd61259b565b5b5f61310b8882890161308a565b955050602061311c888289016130bd565b945050604061312d888289016130d1565b935050606061313e888289016130d1565b925050608061314f8882890161308a565b9150509295509295909350565b5f61316682612656565b915061317183612656565b925082820390508181111561318957613188612cb0565b5b92915050565b5f6040820190506131a25f83018561279c565b6131af60208301846126b4565b939250505056fea26469706673582212205d6c141d89787ed32326c65c692901ff1309d88333efd7ac649fb82ce53ee7c264736f6c63430008230033","linkReferences":{}},"methodIdentifiers":{"MAX_STALENESS()":"caca95a4","RESALE_CAP_PCT()":"98107b48","approve(address,uint256)":"095ea7b3","balanceOf(address)":"70a08231","buyResale(uint256)":"b54baacf","buyTicket()":"edca914c","countForSale(uint256[])":"9c0f2d3b","getApproved(uint256)":"081812fc","isApprovedForAll(address,address)":"e985e9c5","listForResale(uint256,uint256)":"1f7d863c","name()":"06fdde03","oracle()":"7dc0d1d0","organizer()":"61203265","ownerOf(uint256)":"6352211e","pendingWithdrawals(address)":"f3f43703","purchasePrice(uint256)":"77fbc4ae","resalePrice(uint256)":"0384ca49","safeTransferFrom(address,address,uint256)":"42842e0e","safeTransferFrom(address,address,uint256,bytes)":"b88d4fde","setApprovalForAll(address,bool)":"a22cb465","supportsInterface(bytes4)":"01ffc9a7","symbol()":"95d89b41","ticketPriceEur()":"a5c2487a","tokenURI(uint256)":"c87b56dd","totalTickets()":"dd11247e","transferFrom(address,address,uint256)":"23b872dd","withdraw()":"3ccfd60b"},"id":17}