{"abi":[{"type":"constructor","inputs":[{"name":"initialAnswer","type":"int256","internalType":"int256"}],"stateMutability":"nonpayable"},{"type":"function","name":"latestRoundData","inputs":[],"outputs":[{"name":"roundId","type":"uint80","internalType":"uint80"},{"name":"answer","type":"int256","internalType":"int256"},{"name":"startedAt","type":"uint256","internalType":"uint256"},{"name":"updatedAt","type":"uint256","internalType":"uint256"},{"name":"answeredInRound","type":"uint80","internalType":"uint80"}],"stateMutability":"view"},{"type":"function","name":"setAnswer","inputs":[{"name":"answer","type":"int256","internalType":"int256"}],"outputs":[],"stateMutability":"nonpayable"},{"type":"function","name":"setUpdatedAt","inputs":[{"name":"updatedAt","type":"uint256","internalType":"uint256"}],"outputs":[],"stateMutability":"nonpayable"}],"bytecode":{"object":"0x6080604052348015600e575f5ffd5b506040516103073803806103078339818101604052810190602e91906072565b805f8190555042600181905550506098565b5f5ffd5b5f819050919050565b6054816044565b8114605d575f5ffd5b50565b5f81519050606c81604d565b92915050565b5f6020828403121560845760836040565b5b5f608f848285016060565b91505092915050565b610262806100a55f395ff3fe608060405234801561000f575f5ffd5b506004361061003f575f3560e01c80631ecc7d881461004357806399213cd81461005f578063feaf968c1461007b575b5f5ffd5b61005d60048036038101906100589190610110565b61009d565b005b6100796004803603810190610074919061016e565b6100a7565b005b6100836100b7565b6040516100949594939291906101db565b60405180910390f35b8060018190555050565b805f819055504260018190555050565b5f5f5f5f5f60015f546001546001546001945094509450945094509091929394565b5f5ffd5b5f819050919050565b6100ef816100dd565b81146100f9575f5ffd5b50565b5f8135905061010a816100e6565b92915050565b5f60208284031215610125576101246100d9565b5b5f610132848285016100fc565b91505092915050565b5f819050919050565b61014d8161013b565b8114610157575f5ffd5b50565b5f8135905061016881610144565b92915050565b5f60208284031215610183576101826100d9565b5b5f6101908482850161015a565b91505092915050565b5f69ffffffffffffffffffff82169050919050565b6101b781610199565b82525050565b6101c68161013b565b82525050565b6101d5816100dd565b82525050565b5f60a0820190506101ee5f8301886101ae565b6101fb60208301876101bd565b61020860408301866101cc565b61021560608301856101cc565b61022260808301846101ae565b969550505050505056fea2646970667358221220a6cc4ece95107b14284a93ec545443f67ac0e8054683d68e7082111e0790dcbe64736f6c63430008230033","linkReferences":{}},"methodIdentifiers":{"latestRoundData()":"feaf968c","setAnswer(int256)":"99213cd8","setUpdatedAt(uint256)":"1ecc7d88"},"id":1}